:100000000C942A000C9447000C9447000C94470071
:100010000C9447000C9447000C9447000C94470044
:100020000C9447000C9447000C9447000C94470034
:100030000C9447000C9447000C9447000C94470024
:100040000C9447000C9447000C9447000C94470014
:100050000C94470011241FBECFE5D4E0DEBFCDBF16
:1000600010E0A0E6B0E0E2E7F1E002C005900D92FA
:10007000A837B107D9F710E0A8E7B0E001C01D929A
:10008000A837B107E1F70E9453000C94B7000C9415
:100090000000FC0104C05D9BFECF8CB931968081CD
:1000A0008823C9F708951F93CF93DF9383E389B91A
:1000B00010BC88E18AB98EE880BDC9E1D0E01DE0BE
:1000C00080E690E00E94490080E197E2FE013197CE
:1000D000F1F70197D9F75D9BFECF1CB980E197E25C
:1000E000FE013197F1F70197D9F783E690E00E947E
:1000F000490080E197E2FE013197F1F70197D9F7C6
:100100005D9BFECF1CB98FEF9FEFFE013197F1F79A
:100110000197D9F783E790E00E94490080E197E2D8
:10012000FE013197F1F70197D9F75D9BFECF1CB91E
:1001300080E197E2FE013197F1F70197D9F78FEF50
:100140009FEFFE013197F1F70197D9F7B9CF83E31C
:1001500089B910BC88E18AB98EE880BD08955D9B9D
:10016000FECF8CB908955F9BFECF8CB10895F894B3
:02017000FFCFBF
:100172004154004154442038363139333335363016
:08018200313B0041544800002C
:00000001FF
